:1044000055425C0135D0085A8245102431400044A1
:104410003F4000000F930824924210245C012F8338
:104420009F4F26480024F8233F4010000F93072495
:10443000924210245C011F83CF430024F923B01261
:10444000DC45B01262443B400000B0126E440B9356
:10445000FC27B0120000F93F32D0F000FD3F3040A1
:104460007E475E437F402C00B012D24630415E430F
:104470007F402C00B01240473E40E8030F43B0128B
:1044800024464E437F402C00B01240473E40E80394
:104490000F43B01224463041F2D030004A02F2D02D
:1044A0000C004402B2F0FEFF6C01B2D00C006C01B3
:1044B0002D42B2F0F4FF6E01B2F0FDFF02013E406A
:1044C00029003F4080B01F83FE231E83FC2303434B
:1044D0003D530324A2B30201EC23B2F03FFF6C0171
:1044E0003041B2401D5A5C0192D300013041F2408C
:1044F000A5FF2101B2F0F8FF2601C2432001B2F06E
:10450000F8FF2C011F4226013FF0F8FF1FD3824F16
:10451000260192B32C01FD27A2B32C01FD275F4297
:1045200020017FF0FCFF5FD3C24F2001A2B22C011B
:10453000FD27B2F0F8FF2C011F4226013FF0F8FFE3
:104540002FD3824F260192B32C01FD27A2B32C0159
:10455000FD275F4220017FF0FCFF6FD3C24F200197
:10456000A2B22C01FD27B2F0F8FF2C011F42260158
:104570003FF0F8FF3FD00300824F260192B32C0199
:10458000FD27A2B32C01FD27F2D003002001A2B227
:104590002C01FD27B2F0FFBB2401B2F0FFBB2601C6
:1045A000C243210182436001B24060006201B24017
:1045B000E7116401B24020006601B2404400680186
:1045C000B2F0F8FF6E01F240A5FF2101B2F0FEFF4C
:1045D0003001C2432101B01298443041B240805AA8
:1045E0005C01B012EE44B012E244B24028960009D9
:1045F000B2F0FFE70809B2400096000932D230411C
:104600000F4232C203431C4208241D420A24024FB7
:104610000E4C0F4D4FEC0FEC8F104E4E8E100E5E69
:104620000F6F30413B15084E094FB01200460A4E3D
:104630000B4F103CB01200460E8A0F7B0F930320E5
:104640003E90E8030528385339633A50E8030B637A
:1046500032D018000893EE230993EC233817304129
:104660004F151E4204241F4206241B4202245D42B1
:1046700000244D9304241C420C240D43023C0C43A3
:104680000D430E5C0F6D5D4200244D9303241D42CB
:104690000E24023C3D4000020D5B3D90E8030428DF
:1046A0003D5018FC1E530F63824D0224824E042499
:1046B000824F06241E4208241F420A241E530F6301
:1046C000824E0824824F0A24B1C0D0000A004B1742
:1046D00000131B154F4F5A4F80475D4FAF474D9307
:1046E0002D244D4D5D021C4DDE476F4C4B4A7BE344
:1046F0004FFBCC4F00001F4D02481C4DF0471D4D95
:1047000014484E930520CFFB00006F4C4FFB113C2B
:104710006E930520CFFB00006F4D4FDA063C6E9282
:104720000B20CFFB00006F4D4FFBCD4F00006F4CB7
:104730004FDACC4F0000023CCFDA00001A173041AC
:104740001B154F4F5C4F80475F4FAF474F9315246A
:104750004F4F5F021A4FDE476D4A4B4C7BE34DFBD8
:10476000CA4D00001F4F14484E9303206E4F4EFB5E
:10477000023C6E4F4EDCCF4E00001A173041001342
:10478000000020100840400480040202084002019A
:104790000010040100000001020408100140200480
:1047A000800108040810201020020201802010005F
:1047B00000060303010603020404080202030300C7
:1047C00007020200000006060606060703030803A8
:1047D00004040101010102020201010404040000B9
:1047E0000A020B022A022B024A024B026A026B02E5
:1047F000000006020702260227024602470266025E
:104800006702000004020502240225024402450258
:104810006402650200000202030222022302420235
:0648200043026202630284
:10FF8000FFFFFFFFFFFFFFFFFFFFFFFFFFFFFFFF81
:10FF9000FFFFFFFFFFFFFFFFFFFFFFFFFFFFFFFF71
:10FFA000FFFFFFFFFFFFFFFFFFFFFFFFFFFFFFFF61
:10FFB000FFFFFFFFFFFFFFFFFFFFFFFFFFFFFFFF51
:10FFC0005E445E445E445E445E445E445E445E4421
:10FFD0005E445E445E445E445E445E445E445E4411
:10FFE0005E445E445E445E445E445E445E445E4401
:10FFF0005E4460465E445E445E445E445E4400444B
:0400000300004400B5
:00000001FF
